:020000040800F2
:1000000098290020F51700082103000823030008A1
:100010002B0300082F030008330300080000000032
:10002000000000000000000000000000370300088E
:10003000390300080000000005620008B140000814
:100040000F1800080F1800080F1800080F180008F4
:100050000F1800080F1800080F1800080F180008E4
:100060000F1800080F1800080F1800080F180008D4
:100070000F1800080F1800080F1800080F180008C4
:100080000D1300080F1800080F1800080F180008BB
:100090000F1800080F1800080F1800080F180008A4
:1000A0000F1800080F1800080F1800080F18000894
:1000B00033140008891500080F1800080F180008ED
:1000C0000F1800080F1800080F1800080F18000874
:1000D0000F180008350E00080F1800080F18000848
:1000E0000F1800080F1800080F1800080F18000854
:1000F0000F1800080F1800080F1800080F18000844
:100100000F1800080F1800080F1800080F18000833
:100110000F1800080F1800080F1800080F18000823
:100120000F1800080F1800080F1800080F18000813
:100130000F1800080F1800080F1800080F18000803
:10014000B50A00080F1800080F1800080F1800085B
:100150000F1800080F1800080F1800080F180008E3
:100160000F1800080F1800080F1800080F180008D3
:100170000F1800080F1800080F1800080F180008C3
:100180000F1800080F18000800F002F800F03CF803
:100190000AA090E8000C82448344AAF10107DA45E2
:1001A00001D100F031F8AFF2090EBAE80F0013F0F8
:1001B000010F18BFFB1A43F0010318471CA90000E8
:1001C0003CA90000103A24BF78C878C1FAD8520779
:1001D00024BF30C830C144BF04680C6070470000C1
:1001E0000023002400250026103A28BF78C1FBD840
:1001F000520728BF30C148BF0B6070471FB50AF0D7
:10020000AAFA1FBD10B510BD08F0A0F91146FFF7FE
:10021000F5FF00F064F808F0BEF903B4FFF7F2FF51
:1002200003BC08F0C1F900007047000010B5A82019
:1002300003F04AFF4FF4A06001F0FCFA00F086F9E9
:10024000002000F02CFB00F0F5F9472140F2CF70C0
:1002500001F070F94721C72001F0BAF800F097FDCE
:100260002A4800F073FF4FF4FA7003F07DFF01F0AD
:10027000E5F900F05DFF10BD02E0052003F074FF1A
:10028000FBE702E0052003F06FFFFBE701E007F06A
:100290004DFDFCE770B50446002500BF04F0F4F9FD
:1002A00005F088FF05460123194A0021AFF223001B
:1002B00005F060FB0223174A0021AFF2390005F078
:1002C00059FB0323144A0021AFF2530005F052FBFF
:1002D0000A2005F0CFFD284605F070FF70BD10B56F
:1002E000A82003F0F1FE4FF4A06001F0A3FAFFF79D
:1002F0009DFF04F08CF80A23084A0021AFF26B003E
:1003000005F038FB04F0A8F9002010BDA08601001C
:10031000D00A0020D00C0020D00E0020D0020020F7
:10032000704710B5FFF780FF10BD00BFFEE700BFAC
:10033000FEE700BFFEE77047704700000CB50020E5
:10034000019000907648006840F48030744908605D
:1003500000BF7348006800F4003000900198401C12
:100360000190009818B90198B0F5A04FF1D16C48F0
:10037000006800F4003010B10120009001E000207E
:1003800000900098012846D165484030006840F050
:1003900080506349403108606248006840F4404042
:1003A000604908605E48083000685D4908310860AF
:1003B0000846006840F4004008600846006840F4C1
:1003C000A05008605848091F0860081F006840F0E6
:1003D0008070091F086000BF5148006800F000707D
:1003E0000028F9D040F20570504908604C480830A8
:1003F000006820F003004A49083108600846006898
:1004000040F00200086000BF45480830006800F076
:100410000C000828F8D10CBD10B54548006840F420
:100420007000434908603E48006840F001003C49C4
:10043000086000203A4908310860394800683D49A1
:100440000840374908603C48091D0860081F0068DB
:1004500020F48020091F0860002031490C31086019
:10046000FFF76CFF4FF0006031498039086010BD24
:1004700070B500200022022300240221284D0835F7
:100480002D6805F00C0020B1042806D0082834D1CE
:1004900007E02A4D2A4E356033E02A4D284E35605C
:1004A0002FE01F4D2D1D2D68C5F380541C4D2D1DB3
:1004B0002D6805F03F0154B1224DB5FBF1F5184E02
:1004C000361D3668C6F3881605FB06F209E01B4D9B
:1004D000B5FBF1F5124E361D3668C6F3881605FBDE
:1004E00006F20F4D2D1D2D68C5F301456D1C6B00E7
:1004F000B2FBF3F5124E356003E0104D104E35603F
:1005000000BF00BF064D08352D68C5F303150E4E1C
:10051000705D0B4D2D68C540094E356070BD000003
:10052000003802400070004008544007003C024080
:1005300088ED00E0FFFFF6FE103000240024F400F8
:100540000000002000127A000400002000B589B0ED
:100550000121022002F0CEFB0121480602F013FC2B
:1005600002208DF8200000208DF8220003208DF855
:10057000210001208DF823004FF44070079007A957
:10058000C14802F019F909220821BF4802F09FF979
:1005900009221146BC4802F09AF900208DF8160095
:1005A0008DF817008DF8180001208DF81900002033
:1005B0008DF81A008DF81B008DF812008DF81300CD
:1005C00005208DF8140006208DF81500ADF81000F8
:1005D00004A9AE4801F0B7F900208DF80A008DF8A3
:1005E0000B0001208DF80C000020ADF80000ADF8E4
:1005F0000200ADF80400ADF80600ADF808000120D7
:100600008DF80D00684601F028FA0E208DF80A00DA
:100610000120ADF80800684601F01FFA002202210F
:100620009A4801F019FD00221021984801F014FDAC
:1006300009B000BDF0B585B0002440F201350020BE
:1006400000908DF808008DF8090002208DF80A004E
:1006500001208DF80B0000218DF80C1069468B48A5
:1006600001F0EAFA074601E0601C84B23946874887
:1006700001F07AFB18B940F6FF708442F4DB642085
:1006800003F072FD002699E00024009500208DF80B
:1006900008008DF8090008208DF80A004D208DF81B
:1006A0000B004F218DF80C1000218DF80D108DF8E6
:1006B0000E108DF80F108DF810108DF811108DF8A8
:1006C00012106946714801F0B7FA074601E0601C54
:1006D00084B239466D4801F047FB18B940F6FF7007
:1006E0008442F4DB642003F03FFD002400950020E9
:1006F0008DF808008DF8090008208DF80A005520B3
:100700008DF80B004D218DF80C1000218DF80D1087
:100710008DF80E1002218DF80F1000218DF81010A9
:100720008DF811108DF812106946584801F084FABE
:10073000074601E0601C84B23946544801F014FBBE
:1007400018B940F6FF708442F4DB642003F00CFD1E
:100750000024009500208DF808008DF8090008207D
:100760008DF80A004D208DF80B004F218DF80C10EC
:1007700000218DF80D108DF80E1001218DF80F104D
:1007800000218DF810108DF811108DF812106946A7
:100790003E4801F051FA074601E0601C84B2394638
:1007A0003A4801F0E1FA18B940F6FF708442F4DBF0
:1007B000642003F0D9FC6D1C701CC6B2042EFFF639
:1007C00063AF05B0F0BDF0B585B004460D46002618
:1007D000009500208DF808008DF8090008208DF89C
:1007E0000A004A208DF80B0056218DF80C100021CC
:1007F0008DF80D108DF80E10E1B28DF80F10210A52
:100800008DF81010210C8DF81110210E8DF812109A
:1008100069461E4801F010FA074600E0761C39468A
:100820001A4801F0A1FA18B940F6FF708642F5D3D4
:1008300005B0F0BD70B586B00446002501940020D7
:100840008DF80C008DF80D0004208DF80E0042206C
:100850008DF80F0047218DF8101000218DF8111030
:100860008DF8121001A9094801F0E6F9064600E0EA
:100870006D1C3146054801F077FA18B94FF6FF7044
:100880008542F5D306B070BD00040240006400400C
:100890000146002901DD084670474842FCE710B5D3
:1008A0008AB004460121022002F024FA0121480600
:1008B00002F069FA0121880602F065FA02208DF83B
:1008C000240000208DF8260003208DF8250001204B
:1008D0008DF827006020089008A9FE4801F06CFF01
:1008E00009220521FB4801F0F2FF09220621F948FF
:1008F00001F0EDFF00208DF81A008DF81B008DF837
:100900001C0001208DF81D0000208DF81E008DF8C0
:100910001F008DF816408DF8170005208DF818007F
:1009200006208DF819000320ADF8140005A9EA4847
:1009300001F009F80E208DF80E0000208DF80F0050
:1009400001208DF810000020ADF80400ADF806007D
:10095000ADF80800ADF80A00ADF80C0001208DF8E4
:10096000110001A801F079F801220221DA4801F012
:1009700073FB40208DF8000001208DF8010000205D
:100980008DF8020001208DF80300684600F057FF43
:100990000AB010BD2DE9F041044600260027B4F945
:1009A0000000B4F9981088420CDDB4F90000B4F9E5
:1009B0009810461AB4F90000A0F50050B4F9981048
:1009C000471A0BE0B4F90000B4F99810461AB4F9CC
:1009D000000000F50050B4F99810471A3046FFF7B0
:1009E00057FF80463846FFF753FF804501DA35460A
:1009F00000E03D462088A4F89800D4F894002844EC
:100A0000C4F89400BDE8F0810FB4009901F47F614F
:100A1000B1F5007F4CD19DF80810E9BB009901F0B9
:100A20000F000022411EC1EBC10303EB4111AB4B90
:100A300023F821209DF80C109DF80B2041EA02219B
:100A4000421EC2EBC20303EB4212A44B33F8222036
:100A500011430AB2411EC1EBC10303EB41119F4B8D
:100A600023F821200022411EC1EBC10303EB4111F9
:100A70009A4B03EB81014A809DF80E209DF80D10E2
:100A800042EA0121421EC2EBC20303EB4212934B26
:100A900003EB8202528800E00AE011430AB2411ED1
:100AA000C1EBC10303EB41118C4B03EB81014A8085
:100AB00004B0704700B587B00221874801F034FBCD
:100AC000E0B102AA0021844801F0ABF90698009039
:100AD00002A80FC8FFF798FF8048FFF75BFF7F4829
:100AE0009C30FFF757FF7E48FFF754FF7C489C304F
:100AF000FFF750FF0221784801F0B1FB07B000BDBD
:100B000070B586B004464FF40070019000208DF857
:100B10000C008DF80D0008208DF80E00B4F89A0036
:100B2000000A8DF80F0094F89A108DF81010B4F8A0
:100B30003601010A8DF8111094F836118DF8121053
:100B4000B4F8D201010A8DF8131094F8D2118DF87F
:100B50001410B4F86E02010A8DF8151094F86E1294
:100B60008DF8161001A95C4801F066F8064601E010
:100B7000681C85B23146584801F0F6F818B940F6BD
:100B8000FF708542F4DB06B070BD70B586B00646D6
:100B900040F2FF10019000208DF80C008DF80D0040
:100BA00008208DF80E0001A94B4801F045F80546D4
:100BB00001E0601C84B22946474801F0D5F818B915
:100BC00040F6FF708442F4DB06B070BD70B5054698
:100BD0000C46B4F9020000EE900AF8EEE00AB0EE1E
:100BE000600A00EE905AF8EEE00A201D00F0E4FCE6
:100BF00094ED090ADFED3B0AB4EEE00AF1EE10FADB
:100C000003D29FED380A84ED090A94ED090ADFED5D
:100C1000360AB4EEE00AF1EE10FA03DD9FED320A77
:100C200084ED090A94ED090ABDEEC00A10EE100A1F
:100C300000B2A4F89A0070BD70B504460D46D4ED1C
:100C4000250AF8EEE00AB0EE600A00EE905AF8EEDF
:100C5000E00A04F1280000F0AFFC94ED120ADFED89
:100C6000210AB4EEE00AF1EE10FA03D29FED1D0A5C
:100C700084ED120A94ED120ADFED1B0AB4EEE00ACD
:100C8000F1EE10FA03DD9FED180A84ED120A94EDDF
:100C9000120ABDEEC00A10EE100A00B2A4F89A00C3
:100CA00070BD70B504460D46D4ED250AF8EEE00A95
:100CB000B0EE600A00EE905AF8EEE00A04F170001F
:100CC00000F07AFC94ED240ADFED080AB4EEE00AA5
:100CD0000EE000000004024000680040D40E002036
:100CE0000C100020000000C700FEFF4600FEFFC6FB
:100CF000F1EE10FA03D21FED030A84ED240A94EDFD
:100D0000240A5FED070AB4EEE00AF1EE10FA03DD03
:100D10001FED0B0A84ED240A94ED241AF0EE410A2B
:100D2000B4F9020001EE100AB8EEC11AB0EE410AA1
:100D300004F14C0000F040FC94ED1B0A5FED170A33
:100D4000B4EEE00AF1EE10FA03D21FED1A0A84EDB8
:100D50001B0A94ED1B0A5FED1C0AB4EEE00AF1EEEB
:100D600010FA03DD1FED200A84ED1B0A94ED1B0A27
:100D7000BDEEC00A10EE100A00B2A4F89A0070BDD1
:100D80000146002901DD084670474842FCE700B5EE
:100D900087B00121084601F0ADFF0121102002F0CB
:100DA00003F807220921D04801F091FD07220A210A
:100DB000CD4801F08CFD4FF4C060059002208DF805
:100DC00018008DF8190000208DF81A0001208DF808
:100DD0001B0005A9C44801F0EFFC4FF4E13001907D
:100DE0000020ADF80800ADF80A00ADF80C00ADF831
:100DF00010000C20ADF80E0001A9BC4802F087FFDE
:100E00000121BA4803F00BF8012240F22551B748FE
:100E100003F0BBF825208DF8000002208DF80100BA
:100E200001208DF802008DF80300684600F007FDF0
:100E300007B000BD10B52DED0C8B40F22551AB482D
:100E400003F0DEF8002875D00120A9490870A748F2
:100E500003F014F8A7490860A748007820B10128DA
:100E60000ED002280BD12CE0A24800680D2803D137
:100E70000120A149087002E000209F4908702AE182
:100E80009C4800680D2810D19C480078401C9B4964
:100E900008700120984908709848007802280FD1FE
:100EA00000200870954908700AE0924800680A28F6
:100EB00003D102209049087002E000208E4908709A
:100EC00009E18C4800788E498E4A126888548D4812
:100ED0000068401C8B4908600846006818287DD1CE
:100EE0000020086084490870854890ED000A864813
:100EF000D0ED000AB4EEE00AF1EE10FA1BDD8048F6
:100F000090ED000A8048D0ED000A30EE600A7F487C
:100F100080ED000A7A4890ED000A7B48D0ED000A87
:100F200030EE600ADFED7A0A30EE600A794880ED33
:100F3000000A1AE0D4E0724890ED000A7248D0ED41
:100F4000000A30EE600A714880ED000A6C4890EDAE
:100F5000000ADFED6F0A30EE200A6B48D0ED000A80
:100F600030EE600A6B4880ED000A684890ED000A98
:100F7000BDEEC00A10EE100AFFF702FF04466548F6
:100F800090ED000ABDEEC00A10EE100AFFF7F8FE61
:100F9000844203DD5F4890ED000A02E05B4890ED7B
:100FA000000A5D4880ED000A554890ED000A564859
:100FB00080ED000A594890ED000A5748D0ED000A2C
:100FC00030EE200A554880ED000A4D4890ED050AA4
:100FD000524880ED050AD0ED000A00E07AE09FED6E
:100FE000501A80EE810ADFED4F0A20EE200A10EE43
:100FF000104A204609F03EFB41EC1D0BB0EE4D0AB5
:10100000F0EE6D0A07F00CFEB0EE40CAF0EE60CADA
:101010009FED450B53EC102B51EC1C0B09F034F8F1
:1010200041EC1A0B364890ED040AB1EE400A10EE7E
:10103000101A084609F01EFB41EC1B0B53EC1A2B4F
:1010400009F02EFA41EC190B9FED370B53EC102BE6
:1010500008F078FD41EC180B08F042FD2F49C860FC
:101060000846D0ED000A9FED2E1A80EE810ADFEDD2
:101070002D0A20EE200A10EE104A204609F0FAFA56
:1010800041EC1C0BB0EE4C0AF0EE6C0A07F038FE97
:10109000B0EE40BAF0EE60BA9FED230B53EC102B8C
:1010A00051EC1B0B08F0F0FF41EC190B144890EDCC
:1010B000030A10EE101A084609F0DCFA41EC1A0B8C
:1010C00053EC192B09F0ECF941EC180B08F008FD72
:1010D0001249086100BF00BF4021044802F087FFA9
:1010E000BDEC0C8B10BD0000000002400010014060
:1010F0001D000020180000201C00002030000020EF
:10110000CC13002034000020200000202400002008
:101110000000B443280000202C000020B41300205D
:1011200000003443DA0F49400000000000E0654051
:101130004FF480609D49086148618860C860032061
:10114000086048604FF480608861704710B596B0C1
:1011500004460121964801F0CDFD0121480401F02B
:1011600012FE07220321934801F0B1FB08201490DE
:1011700002208DF854008DF8550000208DF856009F
:1011800001208DF8570014A98A4801F015FB8A4800
:1011900002F056FD10940020ADF84400ADF8460072
:1011A0004FF48060ADF848000020ADF84C000420FA
:1011B000ADF84A0010A9804802F0A9FD012240F2D2
:1011C00025517D4802F0E1FE10208DF83C00022000
:1011D0008DF83D0003208DF83E0001208DF83F0082
:1011E0000FA800F02CFB754801F08CF800BF734885
:1011F00001F0B1F90028FAD14FF0006000906E487C
:10120000001D01906E48029000200390122004906F
:10121000002005904FF48060069000200790089011
:101220004FF4807009904FF440300A9000200B90EA
:101230000C900D900E906946604801F005F901226E
:1012400010215E4801F0C7F901215C4801F036F930
:1012500001224021584802F08FFE0121564802F039
:10126000DEFD16B010BD00B970470178427841EA42
:101270000221C1F30A01534A11804178C9108278D2
:1012800041EA4211C1F30A014E4A51808178891125
:10129000C27841EA8201027941EA8221C1F30A015E
:1012A000484A918001794910427941EAC211C1F35B
:1012B0000A01444AD18041790911890811724179A2
:1012C000C1F3011151728179C27941EA022109B257
:1012D0003C4A5181017A427A41EA02210AB23949F3
:1012E0008A81817AC27A41EA02210AB23549CA81E9
:1012F000027B0A74427B4A74017C427C41EA0221EF
:10130000C1F30A012F4A518200BFADE710B52E4943
:101310002A4801F07DF9002842D02C49274801F0E5
:1013200046F92949254801F09DF92548FFF79BFF1B
:101330002448408910BB23488089F8B92148C089D6
:10134000E0B92048007CC8B91E48407CB0B91D48AF
:101350000088164908611B48408848611948808800
:1013600088601848C088C8601648007A0860154828
:10137000407A48601348408A886111E000210F4894
:1013800001F09CF800BF0D4801F0E5F80028FAD103
:1013900012210A4801F0B3F80121084801F08EF843
:1013A0001221064801F0ABF810BD0000E413002044
:1013B000010020000000024000440040886002401C
:1013C00014140020001400200088002000080020D1
:1013D0007FB505460C460121084601F0D4FC029574
:1013E000ADF804400020ADF80600ADF80C0001A9EE
:1013F0004FF0804001F07FFE01221146900702F07D
:101400001BFB0121880701F0FFFE1C208DF8000066
:1014100003208DF801008DF8020001208DF80300F3
:10142000684600F00CFA00214FF0804001F0ECFE1D
:101430007FBD10B503F001F80121880702F013FB0E
:10144000012874D10121800702F01EFB5748007863
:10145000092802DB01205549087054480078092802
:101460005BD2DFE800F05A0514233241464B5000AE
:101470004F4991ED090ABDEEC00A10EE101AC822BC
:1014800001FB02F040F20131FFF79DF949E04849C4
:1014900091ED100ABDEEC00A10EE101AC82201FB31
:1014A00002F040F20231FFF78EF93AE0404991ED47
:1014B000170ABDEEC00A10EE101AC82201FB02F096
:1014C00040F20331FFF77FF92BE0394991ED1E0A15
:1014D000BDEEC00A10EE101AC82201FB02F04FF454
:1014E0004171FFF770F91CE040F20130FFF7A2F9FB
:1014F00017E040F20230FFF79DF912E040F20330AE
:10150000FFF798F90DE04FF44170FFF793F90021D0
:101510004FF0804001F078FE03E00120234908707D
:1015200000BF00BF21480078401C2049087002F02D
:101530009FFF10BD7FB505460C460121022001F03A
:1015400022FC0295ADF804400020ADF80600ADF88D
:101550000C0001A9174801F0CEFD012211461548E3
:1015600002F06AFA0121134801F04EFE1D208DF8A9
:10157000000001208DF801008DF802008DF80300B5
:10158000684600F05CF97FBD10B502F056FF0121FE
:10159000084802F068FA012805D10121054802F047
:1015A00073FA06F070FF02F063FF10BD38000020F0
:1015B000AC2200200004004080ED040AC0ED000AC7
:1015C00090ED001AD0ED041A31EE611A80ED051A83
:1015D00090ED051AD0ED061A31EE611AD0ED011A20
:1015E00021EE211AD0ED021A90ED052A01EE821AA1
:1015F000D0ED051A90ED062AF0EE002A42EEC21A4E
:1016000090ED072A71EE821A90ED032A02EE211A5C
:10161000D0ED081A31EE211A80ED081A90ED061A65
:1016200080ED071A90ED051A80ED061A704780EDDF
:10163000010AC0ED020A80ED031A704700B5B0EE52
:10164000001AF6EE000AB2EE040A5A48FFF7EFFF5E
:10165000B0EE001AF6EE000AB2EE040A55489C30CD
:10166000FFF7E5FFB0EE001AF6EE000AB2EE040A4C
:101670005148FFF7DCFFB0EE001AF6EE000AB2EEBA
:10168000040A4D489C30FFF7D2FF9FED4C1ADFED66
:101690004C0AB7EE000A47482430FFF7C8FF9FED19
:1016A000471ADFED470AB7EE000A43487838FFF7DC
:1016B000BEFF9FED421ADFED420AB7EE000A3E4838
:1016C0002430FFF7B4FF9FED3D1ADFED3D0AB7EE82
:1016D000000A3948C030FFF7AAFF9FED381ADFED46
:1016E000370AB7EE080A3748FFF7A1FF9FED331A14
:1016F000DFED320AB7EE080A3348FFF798FF9FED97
:101700002F1ADFED2E0AB7EE080A3048FFF78FFFD9
:10171000B1EE041ADFED290AB0EE000A2C48FFF7FB
:1017200086FF9FED261ADFED250AB7EE000A29484D
:10173000FFF77DFF9FED211ADFED200AB7EE000ACB
:101740002548FFF774FF9FED1D1ADFED1C0AB7EE69
:10175000000A2248FFF76BFF9FED181ADFED170A0A
:10176000B7EE000A1E48FFF762FF9FED141ADFED87
:10177000130AB7EE000A1B48FFF759FF9FED0F1A37
:10178000DFED0E0AB7EE000A1748FFF750FF9FED96
:101790000B1ADFED0A0AB7EE000A1448FFF747FFFD
:1017A0009FED061ADFED050AB7EE000A1048FFF7B5
:1017B0003EFF00BD200F0020581000200000000058
:1017C0000AD7233C482000206C20002090200020D5
:1017D000B4200020D8200020FC2000202021002060
:1017E00044210020682100208C210020B02100200D
:1017F000D42100200948804709480047FEE7FEE75A
:10180000FEE7FEE7FEE7FEE7FEE7FEE7FEE7FEE7B0
:1018100004480549054A064B7047000019040008B2
:10182000890100089823002098290020982500208D
:101830009825002032490143324A1160704770B543
:10184000002100230F22C4781CB32E4C246804F41A
:10185000E064C4F5E064C4F30721C1F10404E3B219
:101860000A4144789C40E1B28478144021430C073B
:10187000210E254C05786155047804F01F050124DC
:10188000AC4005786D11AD0005F1E025C5F80041CB
:1018900009E0047804F01F050124AC401B4D0678D4
:1018A000761145F8264070BD194A0A400243154B8F
:1018B0001B1F1A60704739B1124A121D1268024389
:1018C000104B1B1D1A6006E00E4A121D126882435F
:1018D0000C4B1B1D1A607047042808D14FF0E02103
:1018E000096941F004014FF0E022116107E04FF077
:1018F000E021096921F004014FF0E02211617047F5
:101900000000FA050CED00E000E400E080E100E0FA
:1019100080FFFF1F10B50446FE48844209D1012113
:10192000480601F085FA00214FF0007001F080FABE
:1019300008E00121880601F07BFA00214FF0806069
:1019400001F076FA10BD30B502460020002314687D
:1019500024F002041460146844F00104146000E0F0
:101960005B1C546804F001041CB94FF6FF74A342D9
:10197000F6D1546804F001040CB900206CE08C79B5
:10198000012C04D1146844F08004146003E014684E
:1019900024F080041460CC79012C04D1146844F044
:1019A0004004146003E0146824F0400414600C7ACE
:1019B000012C04D1146844F02004146003E014687E
:1019C00024F0200414604C7A012C04D1146844F0F3
:1019D0001004146003E0146824F0100414608C7A7E
:1019E000012C04D1146844F00804146003E0146866
:1019F00024F008041460CC7A012C04D1146844F05B
:101A00000404146003E0146824F0040414608C7867
:101A1000A407CD7844EA05640D7944EA05444D797C
:101A200044EA05540D886D1E2C43D461146824F0DB
:101A300001041460002300E05B1C546804F00104FE
:101A40001CB14FF6FF74A342F6D1546804F00104B0
:101A50000CB1002000E0012030BD10B50021837AD8
:101A6000012202FA03F1AC4A126842F00102AA4BC9
:101A70001A60A94A1C3212688A43A74B1C331A60A9
:101A8000027BCAB9A44A0C3212688A43A24B0C33B7
:101A90001A604288C38842EA03439F4A4032847AEC
:101AA00042F834300288838842EA03439A4A40323B
:101AB000847A02EBC4025360027B012A19D1964A50
:101AC0000C3212680A43944B0C331A604288038824
:101AD00042EA0343904A4032847A42F83430C28862
:101AE000838842EA03438C4A4032847A02EBC40280
:101AF0005360C27A3AB9884A121D12688A43864BEB
:101B00001B1D1A6006E0844A121D12680A43824BAC
:101B10001B1D1A60028932B97F4A143212688A4347
:101B20007D4B14331A600289012A06D17A4A143295
:101B300012680A43784B14331A60427B012A06D19B
:101B4000754A1C3212680A43734B1C331A60724A7E
:101B5000126822F00102704B1A6010BD00218171E1
:101B6000C171017241728172C1728170C1700321B1
:101B700001710221417101210180704766490968A4
:101B800041F00101644A11601146096843F60E7282
:101B90009143614A11601146096841EA00211160D0
:101BA0001146096821F001011160704721B10268F6
:101BB00042F48032026003E0026822F48032026064
:101BC0007047E1B1026842F0800202604FF4C272D5
:101BD000125842F480734FF4C27213504FF4CA7219
:101BE000125842F480734FF4CA7213504FF4D272F9
:101BF000125842F480734FF4D27213501BE0026803
:101C000022F0800202604FF4C272125822F48073F4
:101C10004FF4C27213504FF4CA72125822F48073F8
:101C20004FF4CA7213504FF4D272125822F48073D8
:101C30004FF4D2721350704710B5024600209368DB
:101C400003F08063B3F1806F00D110E0936803F07C
:101C50000063B3F1006F01D1012008E0936803F045
:101C60008053B3F1805F01D1022000E004200428FA
:101C700079D002F5C07303EB00131B6803F0010475
:101C800002F5C07303EB00131C600B7A7BB94B7A2F
:101C90000C8843EA445302F5C07404EB0014246832
:101CA000234302F5C07404EB0014236010E00B7AA8
:101CB0004C6843EAC4034C7A234302F5C07404EB36
:101CC00000142468234302F5C07404EB001423605D
:101CD0008B7A03F00F038B7202F5C07303EB0013D2
:101CE0005B6823F00F0402F5C07303EB00135C6024
:101CF00002F5C07303EB00135B688C7A234302F593
:101D0000C07404EB001463608B7B1C064B7B44EABD
:101D1000034403E000640040006600400B7B44EA9B
:101D20000323CC7A234302F5C07404EB0014A360B0
:101D30008B7C1C064B7C44EA03440B7C44EA032363
:101D4000CC7B234302F5C07404EB0014E36002F57E
:101D5000C07303EB00131B6843F0010402F5C0736A
:101D600003EB00131C6010BD10B50246002321B127
:101D7000012907D002290FD109E09068F94C00EA47
:101D800004030BE09068F84C00EA040306E0906856
:101D9000F64C00EA040301E0002300BF00BFF44C4E
:101DA000181BA34216D007DC83B16FF08060184483
:101DB00070B1022818D111E0B0F5007F10D0ED4CC1
:101DC000204448B1B0F5003F0ED10BE002230DE0F6
:101DD00000230BE0002309E0002307E0012305E0D6
:101DE000012303E0012301E0002300BF00BFD8B2BC
:101DF00010BD21B1012907D002290FD109E0826865
:101E000042F0800282600AE0826842F4004282600E
:101E100005E0826842F40002826000E000BF00BF7B
:101E2000704710B500F5D87303EB01131B6803F07E
:101E300004031372137A53B900F5D87303EB01133B
:101E40001B6840F2FF7404EA5353136009E000F585
:101E5000D87303EB01131B686FF0604404EAD303EB
:101E6000536000F5D87303EB01131B6803F0020302
:101E7000537200F5D87303EB01135B6803F00F0393
:101E8000937200F5D87303EB01135B681B0AD374DC
:101E900000F5D87303EB01139B68D37200F5D87378
:101EA00003EB01139B681C0A147300F5D87303EB52
:101EB00001139B681C0C547300F5D87303EB0113DA
:101EC0009B681B0E937300F5D87303EB0113DB685B
:101ED000D37300F5D87303EB0113DB681C0A147489
:101EE00000F5D87303EB0113DB681C0C547400F588
:101EF000D87303EB0113DB681B0E937421B9C3681D
:101F000043F02003C36003E0036943F0200303614F
:101F100010BD21B9C26842F02002C26003E002692C
:101F200042F02002026170470246002019B9D368CE
:101F300003F0030006E0012903D1136903F0030055
:101F400000E00020704710B502460B4600204FF617
:101F5000FF71BBB9146824F0020444F0010414605A
:101F600000E0491E546804F00304012C01D000294C
:101F7000F7D1546804F00304012C01D0002032E0B2
:101F8000012030E0012B13D1146824F00304146005
:101F900000E0491E546804F003040CB10029F8D194
:101FA000546804F003040CB100201CE001201AE086
:101FB000022B17D1146824F0010444F002041460C9
:101FC00000E0491E546804F00304022C01D00029EB
:101FD000F7D1546804F00304022C01D0002002E081
:101FE000012000E0002010BD014600200A6822F018
:101FF000010242F002020A604A6802F00302022A69
:1020000000D10120704701464FF6FF7200200B6897
:1020100023F002030B6000E0521E4B6803F0020342
:10202000022B01D1002AF7D14B6803F00203022BE7
:1020300000D001207047014600208A6902F070003C
:102040007047014600208A69100E70470146002043
:102050008A69C2F3074070471AB143690B43436171
:1020600002E043698B434361704710B5024600208C
:1020700001F4700343B19369C1F3130423400BB11E
:1020800001202DE000202BE001F0807343B1536864
:10209000C1F3130423400BB1012021E000201FE015
:1020A00001F0006343B19368C1F3130423400BB103
:1020B000012015E0002013E001F0007343B1D36864
:1020C000C1F3130423400BB1012009E0002007E015
:1020D0001369C1F3130423400BB1012000E0002079
:1020E00010BD0022244B994202D10023836111E0EC
:1020F000C1F3130201F000730BB1C2600AE001F0FA
:1021000080630BB1026105E001F000630BB18260F6
:1021100000E0426070470246002002EA01030BB172
:10212000012000E00020704770B504460D460026EF
:1021300060692840002872D0B5F5807F69D01DDC29
:10214000082D42D006DC012D2DD0022D31D0042DDA
:102150007FD134E0102D3ED0202D42D0402D78D1BB
:1021600045E0000003000004000300080000031025
:10217000000100080001FFF77000F030B5F5004FD6
:1021800061D009DCB5F5007F4AD0B5F5806F4DD040
:10219000B5F5006F5DD150E0B5F5803F2DD0B5F5B8
:1021A000003F56D12FE0A0685549FFF7B4FF06461F
:1021B00051E0E0680321FFF7AEFF06464BE0E06820
:1021C0000821FFF7A8FF064645E0E0681021FFF769
:1021D000A2FF06463FE020690321FFF79CFF064669
:1021E00039E020690821FFF796FF064633E02069B1
:1021F0001021FFF790FF06462DE060680821FFF7E9
:102200008AFF064627E060681021FFF784FF064634
:1022100021E0A0690121FFF77EFF06461BE01BE0DD
:10222000A0690221FFF777FF064614E0A0690421A8
:10223000FFF771FF06460EE00BE0A0697021FFF783
:102240006AFF064607E060680421FFF764FF064660
:1022500001E0002600BF00E00026304670BDB1F569
:10226000007F3AD00FDC202928D006DC01291CD0C1
:1022700004291DD0082940D11DE0402921D0B1F505
:10228000807F3AD126E0B1F5004F31D006DCB1F5C0
:10229000806F25D0B1F5006F2FD124E0B1F5803FDC
:1022A00012D0B1F5003F28D111E0154A826025E037
:1022B0000822C26022E01022C2601FE008220261F0
:1022C0001CE01022026119E00822426016E0102290
:1022D000426013E00422426010E0042242600DE0FC
:1022E000042242600AE0002282610422426005E08A
:1022F000002282610422426000E000BF00BF7047FC
:1023000001010100016821F001010160002101606B
:1023100041608160C160016121214161DB498842E6
:1023200004D13D21D94A103A91608CE0D749183147
:10233000884205D14FF47461D44A103A916082E02A
:10234000D2493031884205D14FF47411CF4A103A46
:10235000916078E0CD494831884205D14FF07461F1
:10236000CA4A103A91606EE0C8496031884204D18F
:10237000C749C64A103AD16065E0C44978318842FD
:1023800004D1C449C14A103AD1605CE0BF499031E0
:10239000884204D1C049BD4A103AD16053E0BB49DC
:1023A000A831884205D14FF03D51B84A103AD1606A
:1023B00049E0BA49884204D13D21B84A083A11603F
:1023C00041E0B6491831884205D14FF47461B34AEF
:1023D000083A116037E0B1493031884205D14FF4F5
:1023E0007411AE4A083A11602DE0AC494831884278
:1023F00005D14FF07461A94A083A116023E0A7495A
:102400006031884204D1A249A44A121F11601AE027
:10241000A2497831884204D19E49A04A121F116016
:1024200011E09E499031884204D19B499B4A121F7A
:10243000116008E09949A831884204D14FF03D511C
:10244000964A121F1160704710B500220268944B23
:102450001A40CC680B6823434C6923438C6923439F
:10246000CC6923430C6A23434C6A23438C6A23437D
:102470004C6B23438C6B23431A430260426922F066
:102480000702D1E90B3423431A4342610B694360CD
:102490004B6883608B68C36010BD002101604160A0
:1024A0008160C160016141618161C161016241621C
:1024B0008162C162016341638163704721B1026837
:1024C00042F00102026003E0026822F001020260B1
:1024D000704721B1026842F40042026003E00268E2
:1024E00022F400420260704721B1026842F02002EB
:1024F000026003E0026822F020020260704741603F
:1025000070470146486880B2704722B1036843F4BF
:102510000023036003E0036823F4002303600161E8
:10252000704721B1026842F48022026003E0026831
:1025300022F48022026070470AB1016100E0C160AC
:102540007047014600200A6802F400220AB1012007
:1025500000E000207047014600200A6802F00102F6
:102560000AB1012000E000207047014600204A69BE
:1025700002F03800704730B503460A4600200024B8
:10258000464DAB4202D24149103901E0434910396E
:1025900002F000550DB14C6800E00C68414D2C4034
:1025A00004EA02050DB1012000E0002030BD024622
:1025B0003A4B9A4202D23548103801E03748103879
:1025C00001F000531BB1374B0B40C36002E0354BA9
:1025D0000B408360704710B501F080034BB122B10E
:1025E000436943F08003436103E0436923F08003C0
:1025F000436180290BD02AB1036801F01E042343F4
:10260000036004E0036801F01E04A343036010BDEF
:1026100070B50246002000240025204EB24202D2AE
:102620001A4B103B01E01D4B103B1F4E0E4036B1C4
:102630001E2606EAD124166806EA040502E0566959
:1026400006F0800501F000560EB15C6800E01C68E1
:10265000144E344004EA010616B10DB1012000E029
:10266000002070BD02460D4B9A4202D20748103836
:1026700001E00A48103801F000531BB1094B0B4030
:10268000C36002E0074B0B4083607047106002405C
:102690003D000020400F002000003D20106402405B
:1026A0003F801CF07D0F7D0F3C0F3C0F10B50446A2
:1026B0009848844208D10121084600F086FB002199
:1026C000012000F082FB76E09348844208D101218A
:1026D000022000F07AFB0021022000F076FB6AE085
:1026E0008E48844208D10121042000F06EFB0021B5
:1026F000042000F06AFB5EE08948844208D1012191
:10270000082000F062FB0021082000F05EFB52E090
:102710008448844208D10121102000F056FB00219A
:10272000102000F052FB46E07F48844208D101218E
:10273000202000F04AFB0021202000F046FB3AE078
:102740007A48844208D10121402000F03EFB00215C
:10275000402000F03AFB2EE07548844208D1012168
:10276000802000F032FB0021802000F02EFB22E0D0
:102770007048844208D10121801500F026FB002119
:10278000A01500F022FB16E06B48844208D101211D
:10279000401500F01AFB0021601500F016FB0AE05E
:1027A0006648844207D10121001500F00EFB00218C
:1027B000201500F00AFB10BDF0B50A4600210023E9
:1027C000002400BF3DE0012505FA01F3156805EA84
:1027D00003049C4234D105684F000326BE40B54334
:1027E000056015794E00B5400668354305601579DA
:1027F000012D02D01579022D16D185684F000326D0
:10280000BE40B543856055794E00B5408668354376
:102810008560456801268E40B543456045689679D8
:102820008E40B6B235434560C5684F000326BE40B2
:10283000B543C560D5794E00B540C6683543C5601F
:10284000491C1029BFD3F0BD4FF6FF710160002174
:10285000017141718171C171704708B54FF48032C7
:102860000092009A0A430092009AC261C161009AE4
:10287000C261C2690092C269009208BD024600208E
:1028800013690B400BB1012000E0002070470146A6
:10289000086980B270470246002053690B400BB1B3
:1028A000012000E0002070470146486980B270476F
:1028B00001837047418370470AB1018300E041837F
:1028C00070474161704742694A4042617047F0B5C4
:1028D000002300244D07ED0E02FA05F3CE1000F19F
:1028E000200555F826504E07F70E0F26BE40B5437B
:1028F000CF1000F1200646F82750CE1000F1200539
:1029000055F8265045EA0304CE1000F1200545F89D
:102910002640F0BD000002400004024000080240D2
:10292000000C024000100240001402400018024057
:10293000001C024000200240002402400028024007
:10294000F948006840F00100F74908600020F649A6
:1029500008310860F4480068F4490840F24908600A
:10296000F348091D0860F348EF4984310860F048D6
:102970001038091D0860EC48006820F48020EA49FE
:1029800008600020E8490C310860E7498C31086094
:1029900070470021E44A921C11701146087070477C
:1029A00010B501460022002300204A11012A02D15D
:1029B000DD4C236808E0022A03D1DB4C7034236825
:1029C00002E0D94C7434236801F01F0201249440C2
:1029D0001C400CB1012000E0002010BD38B50020E3
:1029E00000900024002500BF3120FFF7D9FF0546E5
:1029F0000098401C00900098B0F5A04F01D0002D29
:102A0000F2D03120FFF7CCFF08B1012400E0002410
:102A1000204638BD01460020C34A106820F0F80067
:102A200040EAC10010607047C34908607047002148
:102A3000BD4A703211701170012802D004280AD1E9
:102A400004E00121B84A7032117005E00521B64A50
:102A50007032117000E000BF00BF7047B7490860D6
:102A6000704770B5049C41EA82150126C6EB5306F7
:102A700045EA0645054345EA0465AB4E361D35601B
:102A800070BDAD4908667047820142EA0172A64BEB
:102A900084331A607047A8498866704710B583016F
:102AA00043EA016343EA02739F4C8834236010BDFC
:102AB000A14908677047A049C864704702460020D2
:102AC000994B0833186820F0EC6042EA0103184380
:102AD000954B08331860704702460020924B08332C
:102AE000186820F0784042EA010318438E4B0833FF
:102AF00018607047014600208B4A0832106820F0A9
:102B0000030008431060704787480830006800F0F1
:102B10000C00704701460020834A0832106820F0FC
:102B2000F000084310607047014600207E4A0832DA
:102B3000106820F4E0500843106070470146002000
:102B4000794A0832106820F4604040EAC100106001
:102B50007047F0B500210022002402250026022340
:102B6000714F08373F6807F00C0121B1042905D0E7
:102B7000082937D105E0724F076036E0714F0760D2
:102B800033E0694F3F1D3F68C7F38056664F3F1DD6
:102B90003F6807F03F036EB16A4FB7FBF3F7DFF80A
:102BA00088C10CF1040CDCF800C0CCF3881C07FBD6
:102BB0000CF40CE0624FB7FBF3F7DFF86CC10CF1DB
:102BC000040CDCF800C0CCF3881C07FB0CF4564F57
:102BD0003F1D3F68C7F301477F1C7D00B4FBF5F73D
:102BE000076002E0564F076000BF00BF4E4F083736
:102BF0003F6807F0F0010909534F7A5C0768D74036
:102C00004760494F08373F6807F4E051890A4E4F43
:102C10007A5C4768D7408760434F08373F6807F4BE
:102C20006041490B484F7A5C4768D740C760F0BDA8
:102C3000002100F44072B2F5407F0AD13A4A0832CE
:102C4000116821F4F811414A02401143364A083212
:102C50001160354A70321268C0F30B031A43324BCD
:102C600070331A60704735494439086070473349FA
:102C700040390860704736490860704701460020B7
:102C8000294A8C32106820F01F004A1E1043264A41
:102C90008C321060704701460020234A8C32106845
:102CA00020F4F8504A1E40EA02201F4A8C3210607D
:102CB0007047014600201C4A8C32106820F44010F6
:102CC00008431060704701460020174A8C32106894
:102CD00020F4400008431060704701460020124A6B
:102CE0008C32106820F44030084310607047194956
:102CF0000860704739B10C4A3032126802430A4BFF
:102D000030331A6006E0084A303212688243064BBC
:102D100030331A607047F9B1034A34321268024303
:102D2000014B34331A601CE000380240FFFFF6EA22
:102D3000103000240030002000004742800E47423F
:102D40000024F40000127A0039000020FFFCFF0F7D
:102D50005C014742E01147428F4A126882438E4B22
:102D60001A60704739B18C4A121D126802438A4BAF
:102D70001B1D1A6006E0884A121D12688243864BAA
:102D80001B1D1A60704739B1834A0C321268024326
:102D9000814B0C331A6006E07F4A0C321268824382
:102DA0007D4B0C331A60704739B17B4A1032126880
:102DB0000243794B10331A6006E0774A10321268EA
:102DC0008243754B10331A60704739B1724A243A06
:102DD00012680243704B243B1A6006E06E4A243AA4
:102DE000126882436C4B243B1A60704739B16A4ABF
:102DF000203A12680243684B203B1A6006E0664A9C
:102E0000203A12688243644B203B1A60704739B104
:102E1000614A1C3A126802435F4B1C3B1A6006E091
:102E20005D4A1C3A126882435B4B1C3B1A60704738
:102E300039B1594A143A12680243574B143B1A608D
:102E400006E0554A143A12688243534B143B1A6009
:102E5000704739B1504A103A126802434E4B103B4A
:102E60001A6006E04C4A103A126882434A4B103B03
:102E70001A60704739B1484A1C3212680243464B07
:102E80001C331A6006E0444A1C3212688243424BEB
:102E90001C331A60704739B13F4A2032126802432E
:102EA0003D4B20331A6006E03B4A203212688243D1
:102EB000394B20331A60704739B1374A24321268CF
:102EC0000243354B24331A6006E0334A2432126839
:102ED0008243314B24331A60704739B12E4A2C3269
:102EE000126802432C4B2C331A6006E02A4A2C321B
:102EF00012688243284B2C331A60704739B1264A36
:102F0000303212680243244B30331A6006E0224A02
:102F1000303212688243204B30331A6070470128E8
:102F200008D11D493C31096841F008011A4A3C3278
:102F3000116007E018493C31096821F00801164A80
:102F40003C321160704739B1134A273A1278024374
:102F5000114B273B1A7006E00F4A273A127882433A
:102F60000D4B273B1A7070470B484030006840F00B
:102F70008070094940310860704701460020064AC8
:102F8000283A12680A400AB1012000E00020704788
:102F900001492639087070473438024010B504469C
:102FA000FE48844208D101210846FFF752FF002164
:102FB0000120FFF74EFF9DE0B4F1804F08D10121C1
:102FC0000846FFF735FF00210120FFF731FF91E0B0
:102FD000F348844208D101210220FFF729FF002194
:102FE0000220FFF725FF85E0EE48844208D1012149
:102FF0000420FFF71DFF00210420FFF719FF79E0EF
:10300000E948844208D101210820FFF711FF00217F
:103010000820FFF70DFF6DE0E448844208D101214C
:103020001020FFF705FF00211020FFF701FF61E0EE
:10303000DF48844208D101212020FFF7F9FE00215A
:103040002020FFF7F5FE55E0DA48844208D101213F
:103050000220FFF7FEFE00210220FFF7FAFE49E002
:10306000D548844209D101210804FFF7F2FE00216E
:103070004FF48030FFF7EDFE3CE0D048844209D1A8
:1030800001214804FFF7E5FE00214FF40030FFF76F
:10309000E0FE2FE0CA48844209D101218804FFF7ED
:1030A000D8FE00214FF48020FFF7D3FE22E0C54870
:1030B000844208D101214020FFF7BAFE00214020C0
:1030C000FFF7B6FE16E0C048844208D101218020F7
:1030D000FFF7AEFE00218020FFF7AAFE0AE0BB4802
:1030E000844207D101218015FFF7A2FE0021A0151F
:1030F000FFF79EFE10BD00220288A84B98420ED01A
:10310000AC4B98420BD0B0F1804F08D0A44B984202
:1031100005D0A44B984202D0A34B984204D14FF65D
:103120008F731A404B881A43A04B984207D0A04B8C
:10313000984204D04FF6FF431A400B891A4302808D
:103140004B68C3620B880385944B984202D0994B1D
:10315000984201D18B7A03860123838270474FF016
:10316000FF314160002101800181418081727047FF
:103170000185828270470A46002101884FF68F73CD
:10318000194011430180704741627047C162704726
:103190000146486A70470146088D704721B1028890
:1031A00042F00202028004E002884FF6FD731A40EA
:1031B0000280704721B1028842F00402028004E0DC
:1031C00002884FF6FB731A400280704721B10288D3
:1031D00042F08002028004E002884FF67F731A40BA
:1031E0000280704702884FF6F7731A400280028807
:1031F0000A430280704702884FF6FF431A4002805C
:1032000002880A430280704721B1028842F001021D
:10321000028004E002884FF6FE731A400280704775
:1032200070B5002400220023058C4FF6FE76354051
:103230000584028C8388048B4FF68F752C40B51E55
:103240002C400D882C43751E2A408D892A434D88B9
:103250002A43524DA84202D0564DA84213D14FF6F0
:10326000F7752A40CD892A434FF6FB752A408D8891
:103270002A434FF6FF652B404FF6FF552B400D8A32
:103280002B434D8A2B43838004838D6845630284DE
:1032900070BD70B5002400220023058C4FF6EF7638
:1032A00035400584028C8388048B48F6FF752C40DA
:1032B0004FF6FF452C400D884FF6FF7606EA0525B0
:1032C0002C434FF6DF752A408D8906EA05152A43FF
:1032D0004D8806EA05152A43304DA84202D0354DE7
:1032E000A8421DD14FF67F752A40CD894FF6FF7653
:1032F00006EA05152A434FF6BF752A408D8806EA6F
:1033000005152A434FF6FF352B404FF2FF752B4032
:103310000D8A06EA85052B434D8A06EA85052B436F
:10332000838004838D688563028470BD70B500243A
:1033300000220023058C4FF6FF6635400584028C81
:103340008388848B4FF68F752C404FF6FC752C408C
:103350000D882C434FF6FF552A408D894FF6FF7696
:1033600006EA05252A434D8806EA05252A430B4D22
:10337000A84202D00F4DA84238D14FF2FF752A4023
:10338000CD894FF6FF7606EA05252A434FF6FF352D
:103390002A408D8806EA05252A4319E000000140ED
:1033A0000004004000080040000C004000100040F5
:1033B000001400400004014000400140004401406E
:1033C0000048014000180040001C00400020004060
:1033D0004EF6FF752B404DF6FF752B400D8A06EA21
:1033E00005152B434D8A06EA05152B4383808483FC
:1033F0008D68C563028470BD70B50022002300246F
:10340000058C4EF6FF7635400584038C8488828BCC
:1034100048F6FF752A404FF6FF452A400D884FF6C3
:10342000FF7606EA05252A434DF6FF752B408D8968
:1034300006EA05352B434D8806EA05352B43FE4D3C
:10344000A84202D0FD4DA84208D14BF6FF752C4092
:103450000D8A4FF6FF7606EA85152C438480828319
:103460008D680564038470BD0021018041808180E6
:1034700081608181C18101824182704770B50346BC
:10348000002000241846183001258D40ACB21D8C58
:10349000A5431D8409B108290AD100EB6100056824
:1034A0004FF68F76354005600568154305600FE0DF
:1034B0000D1FC5F34E052844056848F6FF763540D4
:1034C000056005684FF6FF7606EA0226354305607B
:1034D00070BD4163704781637047C1637047016489
:1034E00070470A460021018B4FF68F731940114334
:1034F000018370470A460021018B48F6FF7319408B
:103500004FF6FF7303EA02231943018370470A460B
:103510000021818B4FF68F731940114381837047CF
:103520000A460021818B48F6FF7319404FF6FF735E
:1035300003EA02231943818370470A460021018B65
:103540004FF6F77319401143018370470A46002173
:10355000018B4FF2FF7319404FF6FF7303EA02230A
:103560001943018370470A460021818B4FF6F77398
:1035700019401143818370470A460021818B4FF225
:10358000FF7319404FF6FF7303EA02231943818347
:1035900070470A460021018B4FF6FB731940114317
:1035A000018370470A460021018B4FF6FF33194013
:1035B0004FF6FF7303EA02231943018370470A465B
:1035C0000021818B4FF6FB731940114381837047B3
:1035D0000A460021818B4FF6FF3319404FF6FF73E7
:1035E00003EA02231943818370470A460021018BB5
:1035F0004FF67F7319401143018370470A4600213B
:10360000018BC1F30E014FF6FF7303EA0223194346
:10361000018370470A460021818B4FF67F73194062
:103620001143818370470A460021818BC1F30E014B
:103630004FF6FF7303EA02231943818370470A465A
:103640000021018C4FF6FD7319401143018470472E
:103650000A460021018C4FF6F7731940114301848B
:1036600070470A460021018C4FF6DF7319404FF670
:10367000FF7303EA02131943018470470A460021CD
:10368000018C4FF67F7319404FF6FF7303EA021364
:103690001943018470470A460021018C4FF6FF53FD
:1036A00019404FF6FF7303EA022319430184704760
:1036B0000A460021018C4FF2FF7319404FF6FF7349
:1036C00003EA02231943018470470A460021018C52
:1036D0004DF6FF7319404FF6FF7303EA02331943A7
:1036E0000184704730B5002301248C40A3B2048CC0
:1036F0009C430484048C02FA01F5ADB22C4304848B
:1037000030BD30B5002304248C40A3B2048C9C430C
:103710000484048C02FA01F5ADB22C43048430BD5C
:10372000828B4FF2FF331A408283828B4FF6FF73F6
:1037300003EA01231A4382837047F0B50C4615460D
:10374000002100220026078C4EF6FF7C07EA0C07BA
:103750000784818B028C4FF6FF7707EA043640F628
:10376000FF4739404FF6FF7707EA052739434FF601
:10377000FF7707EA0337394345F6FF773A4046F4C7
:1037800080573A4381830284F0BD828B4FF6F373F6
:103790001A408283828B0A4382837047F0B50C46BD
:1037A0001546002100220026078C4FF6FF6C07EA21
:1037B0000C070784818B028C4FF6FF7707EA0426FB
:1037C0004FF60C7739404FF6FF7707EA03172F4380
:1037D00039434FF2FF573A4046F480773A438183AA
:1037E0000284F0BD028B4FF2FF331A400283028B3A
:1037F0004FF6FF7303EA01231A4302837047F0B5C3
:103800000C461546002100220026078C4FF6EF7C5F
:1038100007EA0C070784018B028C4FF6FF7707EA53
:10382000041640F6FF4739404FF6FF7707EA0337A3
:1038300039434FF6FF7703E00000014000040140E8
:1038400007EA052739434FF65F773A4046F01007FD
:103850003A4301830284F0BD028B4FF6F3731A40A2
:103860000283028B0A4302837047F0B50C4615466B
:1038700000210022068C4FF6FE773E400684018B25
:10388000028C4FF60C7631407E1C06EA03162E435E
:1038900031434FF6F576324044F00106324301835E
:1038A0000284F0BD70B505460C46208850B92389C6
:1038B000A28861882846FFF7D8FFE1882846FFF7ED
:1038C000CBFF25E0208804280AD12389A2886188BB
:1038D0002846FFF794FFE1882846FFF783FF17E0AB
:1038E000208808280AD12389A28861882846FFF702
:1038F00055FFE1882846FFF748FF09E02389A288A1
:1039000061882846FFF719FFE1882846FFF708FF7E
:1039100070BD002101804180012181800021C18092
:10392000018170472DE9F04105460C46002601272C
:10393000608808B9022600E00026A088012801D18D
:10394000022700E001272088A0B92389A288618886
:103950002846FFF78AFFE1882846FFF77DFF238985
:103960003A4631462846FFF74AFFE1882846FFF7E6
:1039700039FF13E02389A28861882846FFF73FFFBB
:10398000E1882846FFF72EFF23893A46314628462C
:10399000FFF76BFFE1882846FFF75EFFBDE8F08187
:1039A0000146486B70470146886B70470146C86BFB
:1039B00070470146086C70470A884B881A438B8809
:1039C0001A43CB881A430B891A434B891A438B89B4
:1039D0001A43A0F844207047002101804180818073
:1039E000C180018141818181704731B1B0F84420AB
:1039F00042F40042A0F8442005E0B0F84420C2F3AD
:103A00000E02A0F84420704721B1828842F00402DF
:103A1000828004E082884FF6FB731A4082807047F0
:103A200021B1828842F00102828004E082884FF650
:103A3000FE731A40828070471AB183890B438381D9
:103A400002E083898B4383817047818270470246FD
:103A50000020138A0B400BB1012000E000207047CA
:103A6000CA430282704730B502460020002300247A
:103A7000158A05EA0103958905EA010413B10CB121
:103A8000012000E0002030BDCA430282704741EAB5
:103A90000203A0F8483070471AB183890B43838131
:103AA00002E083898B438381704721B1828842F091
:103AB0000802828004E082884FF6F7731A40828001
:103AC000704701894FF6F8721140018170470A462C
:103AD000002101894FF68F7319401143018170470E
:103AE00030B504460D4629462046FFF7F0FF2089F1
:103AF00040F00700208130BD2DE9F04104460D461D
:103B000016461F46602D06D13B460122314620460F
:103B1000FFF775FE05E03B46012231462046FFF7E0
:103B2000A4FE29462046FFF7D2FF208940F0070077
:103B30002081BDE8F08130B50C4600210189C9B271
:103B40004FF6FF7505EA03251543254329430181F7
:103B500030BD2DE9F04105460E4617469846002433
:103B600043463A4631462846FFF7E5FF2C894FF693
:103B7000F870044044F007044FF68F70044044F09E
:103B800070042C81BDE8F081F0B504460D46164660
:103B90001F463B46324629462046FFF7CCFF208988
:103BA00040F480402081F0BD82884FF68F731A4028
:103BB000828082880A438280704702894FF6F873B8
:103BC0001A40028102890A430281704702894FF636
:103BD0007F731A40028102890A4302817047F0B55F
:103BE0000C4615461E460021002200230189028B47
:103BF000038C4FF6F877394021434FF6FC473A40A3
:103C000040F201173A434FF6DD773B404FF6FF771E
:103C100007EA06172F433B43018102830384F0BD6B
:103C200021B1828842F08002828004E082884FF6CF
:103C30007F731A4082807047A0F8501070470000D0
:103C400010B50446FA48844208D101211020FFF73C
:103C500000F900211020FFF7FCF857E0F5488442F6
:103C600009D101214804FFF7E3F800214FF40030A7
:103C7000FFF7DEF84AE0F048844209D101218804C8
:103C8000FFF7D6F800214FF48020FFF7D1F83DE090
:103C9000EA48844209D10121C804FFF7C9F800218C
:103CA0004FF40020FFF7C4F830E0E548844209D122
:103CB00001210805FFF7BCF800214FF48010FFF741
:103CC000B7F823E0DF48844208D101212020FFF724
:103CD000C0F800212020FFF7BCF817E0DA48844242
:103CE00009D101218807FFF7A3F800214FF0804098
:103CF000FFF79EF80AE0D548844207D1012140052C
:103D0000FFF796F800216005FFF792F810BD2DE946
:103D1000FF4705460E460024A14600BFA046B089D5
:103D200000B100BF2C8A24F44054F08804432C8254
:103D3000AC8941F20C608443B088318908437189B1
:103D400008430443AC81AC8A24F44074B089044332
:103D5000AC826846FEF7FDFEB548854202D0B94800
:103D6000854202D1DDF80C9001E0DDF80890A889C9
:103D700000F4004040B109EBC90000EB09103168C4
:103D80004900B0FBF1F707E009EBC90000EB0910AF
:103D900031688900B0FBF1F76420B7FBF0F0040153
:103DA0002009642101FB1078A88900F4004040B18B
:103DB000322000EBC800B0FBF1F000F00700044334
:103DC00008E0322000EB08106421B0FBF1F000F0B5
:103DD0000F0004432C81BDE8FF874FF416510160AA
:103DE00000218180C18001810C21418100218181DC
:103DF000704710B502460020108A20F470600B88CE
:103E00004C8823438C882343CC8823431843108257
:103E100010BD0021018041808180C180704721B1A7
:103E2000828942F40052828104E082894DF6FF7358
:103E30001A4082817047028B02F47F420283028B18
:103E40000A430283704721B1828942F40042828191
:103E500003E08289C2F30E028281704721B1828A17
:103E600042F40062828204E0828A4FF2FF731A40B9
:103E700082827047C1F308028280704701468888B9
:103E8000C0F308007047028A4FF6F0731A400282AE
:103E9000028A0A430282704721B1828942F00202FB
:103EA000828104E082894FF6FD731A408281704757
:103EB00082894FF2FF731A40828182890A4382818C
:103EC0007047028A4FF6DF731A400282028A0A4361
:103ED0000282704721B1028A42F48042028204E0E9
:103EE000028A4BF6FF731A4002827047818941F0C3
:103EF00001018181704721B1828A42F008028282E9
:103F000004E0828A4FF6F7731A4082827047028B70
:103F1000D2B20283028B42EA01220283704721B1AE
:103F2000828A42F02002828204E0828A4FF6DF73A6
:103F30001A408282704721B1828A42F01002828246
:103F400004E0828A4FF6EF731A4082827047828AB9
:103F50004FF6FB731A408282828A0A43828270473C
:103F600021B1828A42F00202828204E0828A4FF604
:103F7000FD731A40828270471AB1838A0B43838291
:103F800002E0838A8B4383827047F0B503460024A6
:103F900000260025002040F66A17B94200D100BF74
:103FA0001846C1F3421401F01F06012707FA06F56F
:103FB000012C01D10C3004E0022C01D1103000E0C2
:103FC00014301AB107682F43076002E00768AF4357
:103FD0000760F0BD02460020B1F5007F00D100BFB0
:103FE00013880B400BB1012000E00020704701F462
:103FF0000072B2F5007F00D100BFCA430280704753
:1040000070B50246002400230025002040F66A1601
:10401000B14200D100BFC1F3421501F01F030126D8
:1040200006FA03F3012D13D19689334017E00000FF
:10403000001001400044004000480040004C004097
:10404000005000400014014000780040007C004017
:10405000022D02D1168A334001E0968A33400C12B9
:10406000012606FA04F41688344013B10CB101207D
:1040700000E0002070BD10B50022002340F66A1455
:10408000A14200D100BF0A1201249440A3B2DC4334
:10409000048010BD10B500F023FA10BD10B500F07B
:1040A00064FA10BD10B50446204601F0ABFF10BD08
:1040B00010B53E480078012805D100F0BEF900F0A7
:1040C00002FB00F0D5F910BD70B504466FF0040096
:1040D000FDF702FCE11704EB5171C1F3C701344A4B
:1040E0001170E11704EB5171CD1041F28830454356
:1040F0000520304908804FF0E020006940F00200C0
:104100004FF0E021086108464561006940F0010078
:10411000086170BD2DE9F047074600264FF0E0200A
:10412000D0F814902248007807FB00F8FFF7B2FFA0
:104130004FF0E020856911E04FF0E0208469AC4247
:104140000CD0AC4202D2281B064403E0A9EB0400C9
:10415000284406442546464500D300E0ECE700BF6E
:10416000FFF79CFFBDE8F08770B504460F48007864
:10417000A0B11148007888B90E480088844206DB57
:104180000C48008894FBF0F52846FFF78BFF0948A0
:10419000008894FBF0F100FB114084B24FF47A7177
:1041A00004FB01F0FFF7B6FF70BD000076000020B1
:1041B0004A0000204C000020690000207CB500254A
:1041C00014E06946284601F013FE064666B9F74832
:1041D00050F8254044B1012C06D0D4E9020100EB8F
:1041E000810060640198A064681CC5B23F2DE8D9C5
:1041F0007CBD002400BF02E0282001F003FFEC4852
:1042000000780028F8D0EB4800686421B0FBF1F09A
:10421000E84908600846006828B90020E6490870A7
:10422000FF2001F027FE00BF01F0C4FF0446E34871
:104230000068E34908600020E0490860204601F07A
:10424000BDFFDF480068DB490968B0FBF1F0C0F151
:104250006400D949087002F016F8FFF7AFFF142088
:1042600001F0D0FEE0E700B587B0032000218022F6
:10427000D44BCDE90132CDE903104FF6FE703E2359
:10428000D14A0090AFF2950001F0CBFB06AACFA176
:104290003E2001F02FFD07B000BD002400BF00BF8D
:1042A00001F088FF0446C5480068401CC349086007
:1042B000204601F083FF01F0E5FFF1E700B587B08C
:1042C000032000218022C54BCDE90132CDE9031046
:1042D0004FF6FF703F23C24A0090AFF2410001F059
:1042E000A0FB06AABFA13F2001F004FD07B000BD5E
:1042F00004E0002200F8012B4A1E91B20029F8D1F7
:10430000704770B5C821BB48FFF7F2FF00230FE0EC
:10431000581C85B203EB8300B64901EB800405EB22
:10432000850001EB8006002020706660581C83B277
:10433000092BEDD303EB8300AE4901EB8004002091
:10434000207060600846AC49086070BD70B54FF4DD
:104350007C71AA48FFF7CCFF4FF480719348FFF7B8
:10436000C7FF002413E0601CC5B2C4EBC40000EB1F
:104370004000A24901EB8003C5EBC50000EB400003
:1043800001EB80065E619EA0D864601CC4B20B2C59
:10439000E9D3C4EBC40000EB4000984901EB800373
:1043A0000020586196A0D864002096490860934880
:1043B0009549086070BD0021944A1170002004E006
:1043C0000021934A1154411CC8B20828F8D3002197
:1043D000904A1170904A1170904A1160904A116091
:1043E000704700208F4908608F4908708F49087016
:1043F0008F4908708F4908708F4908606F490860BD
:104400006F4908606B49086069490870704710B5CA
:1044100001F034FFFFF7E5FFFFF7CDFFFFF796FF51
:10442000FFF76FFF00F0EAFE01F0E1F9FFF746FF4A
:10443000FFF719FF01F023FF10BD7E480078012827
:1044400008D179480078FF2804D277480078401CCA
:1044500075490870704779496C4A1278885C6C49D4
:10446000095C764A515C01EBC0016B4A11707047E0
:1044700010B500246F480078012830D101F09AFE71
:1044800004466948007820B167480078401E6649B4
:10449000087065480078F8B964480078E0B9FFF71B
:1044A000DAFF42485C49097850F821005B4908600E
:1044B000594800785749097888420DD05748006814
:1044C000806B401C5549096888635B480068401C44
:1044D0005949086001F08EFE204601F06FFE10BDC4
:1044E00010B5002453480078012811D101F062FE74
:1044F00004464D48007840B94C480078FF2804D263
:104500004A480078401C49490870204601F056FE90
:1045100010BD10B5002401F04DFE0446424800785D
:10452000F8B942480078E0B9FFF795FF1F483A49CB
:10453000097850F821003949086037480078354932
:10454000097888420DD035480068806B401C33499B
:104550000968886338480068401C3749086001F0E2
:1045600042FE204601F02AFE10BD10B5002431485D
:10457000007801286FD101F01DFE04462B48007819
:1045800080B12A480078401E284908700846007803
:1045900048B92548007838B9204601F00FFEFFF7EA
:1045A000B8FF58E054E04FE04AE000004019002016
:1045B00068000020600000205C00002078000020DF
:1045C00064000020401500203C17002075432F4F49
:1045D000532D494920537461740000004017002096
:1045E0003C19002075432F4F532D49492049646CD5
:1045F000650000002814002054000020401A00200C
:104600003F00000088000020800000206D00002096
:104610006E0000206B0000206C0000208400002051
:104620007C00002094000020690000206A00002027
:104630007700002076000020500000206AA70008C4
:10464000204601F0BBFD06E0204601F0B7FD02E088
:10465000204601F0B3FD10BD10B5EB48007890B9CD
:10466000FFF7F9FEE9480078E9490870E948E749A9
:10467000097850F82100E849086008460068E749D1
:10468000086001F09EFD10BD10B50024022001F06D
:10469000B9FC01F08FFD04460020E1490860204686
:1046A00001F08CFD142001F0ADFC01F083FD044607
:1046B000DB480068DB4908600120DB4908702046C0
:1046C00001F07CFD10BD70B5002601F0B4FE01F0D4
:1046D00071FD0646D5480068401CD4490860304644
:1046E00001F06CFDC8480078012853D1D04800780B
:1046F00020B1012804D0022809D103E001250BE0F4
:10470000002509E001250120C949087004E00125C0
:104710000020C749087000BF00BF05B970BDC5487B
:10472000046833E001F046FD0646E06A50B3E06AF3
:10473000401EE062E06A28BB94F8300000F03700C9
:1047400040B114F8300F00F0C800207001206070F4
:10475000303C02E0002084F8310094F8300000F092
:10476000080078B93434A078B34909780843B249CD
:1047700008702078B149085C6178084314F834194E
:10478000AE4A50546469304601F018FD94F8320086
:104790003F28C7D100BFC1E740F2231070477047E0
:1047A00010B590F8342001F10B039B5C90F8354074
:1047B000A34301F10B04A35423469B5C23B98B7ADA
:1047C00090F83640A3438B7210BD2DE9F04F05469B
:1047D0000F4690469946A87A99490E5C05F10B0060
:1047E000805D11F800B00BEBC60000F0FF0A8948AD
:1047F00050F82A4000202034E0602760207C20EA26
:104800000800207484F81190207C203C00F00800FF
:1048100068B994F8360088490978084386490870D1
:104820008648805D94F835100843844988552946A8
:104830002046FFF7B5FF5046BDE8F08F10B5774A28
:104840001268D061754A126892F8343000F10B0298
:10485000D25C724B1B6893F835301A436F4B1B6860
:1048600093F8344000F10B031A55827A6B4B1B68A6
:1048700093F836301A438272684A126892F83410FC
:104880006E4A525C654B1B6893F835309A436B4B0C
:104890005A541A46525C42B9604A126892F836304D
:1048A000654A12789A43644B1A7010BD0146002283
:1048B0008A72002005E0002301F10B021354421C10
:1048C000D0B20828F7D3704705E011F8013B00F893
:1048D000013B531E9AB2002AF7D1704701460020CF
:1048E00002E0491C421CD0B20A78002AF9D1704774
:1048F0002DE9F84F05460F4690469946DDE90AAB8B
:104900000020009001F056FC00904E480468002CF6
:1049100075D0183454F8040C4A490860009801F026
:104920004DFC44F8187CA576002020766076606106
:1049300044F814BC44F80CAC44F8108C0C9824F8DF
:10494000080C24F8069C0020E077E810207705F09A
:104950000700E076217F01208840A077E17E0120DA
:104960008840607700206060E060A0602062A06204
:104970006062E0622063AFF278306063183C00262A
:1049800006E0002104F1500040F82610701CC6B269
:10499000002EF6D0204601F04DFD204601F070FCBF
:1049A00001F008FC00901B4840F8254021480068B1
:1049B00060610020A0611F48006810B11D480068B8
:1049C00084611C4804603434A0781B49097808438A
:1049D0001949087020781949085C6178084314F86F
:1049E0003419164A505418480078401C164908706B
:1049F000009801F0E3FB0020BDE8F88FFFE7009886
:104A000001F0DCFB4220F7E7760000206C0000207C
:104A10006B00002040190020840000207C00002052
:104A20007800002060000020680000209400002032
:104A30008C000020880000206D0000206E00002007
:104A40006AA7000880000020770000202DE9F05FB1
:104A500004460F4691461E464FF0000B207805286D
:104A600004D0012030700020BDE8F09F09F0800ADA
:104A7000BAF1000F04D029F080094FF0010801E0DD
:104A80004FF000080020307001F094FB8346B9F12C
:104A9000000F2CD0B9F1010F3BD0B9F1020F03D0B8
:104AA000B9F1030F46D111E0208900EA0705BD42A4
:104AB00006D1B8F1010F05D12089A843208101E07A
:104AC00070203070584601F079FB3AE0208900EA06
:104AD000070535B1B8F1010F05D12089A843208120
:104AE00001E070203070584601F068FB29E0208911
:104AF00027EA0005BD4206D1B8F1010F05D1208992
:104B00002843208101E070203070584601F056FBA8
:104B100017E0208927EA000535B1B8F1010F05D16A
:104B200020892843208101E070203070584601F030
:104B300045FB06E0584601F041FB00256F20307030
:104B400000BF00BF28468FE72DE9F04106460D461D
:104B50000027FA48007820B1102028700020BDE816
:104B6000F08101F027FB0746F548046884B100682E
:104B70004068F349086005202070268100206060AD
:104B8000F0A0E060384601F019FB0020287004E036
:104B9000384601F013FB722028702046DFE730B55D
:104BA00001464A6808682AB9CC68606028B10025C7
:104BB000456002E0106000B142608B6800255D62D4
:104BC00030BDF0B506460F46B4680020283460605A
:104BD0002780207A00F0DF00207200206072207AA7
:104BE000283C88B93434A078D74909780843D64995
:104BF00008702078D549085C6178084314F83419A6
:104C0000D24A5054012500E000253046FFF7C7FF87
:104C10002846F0BD2DE9F0470446894615464FF079
:104C2000000AC648007820B10F2028702046BDE851
:104C3000F0872078052803D0012028702046F6E769
:104C400001F0B8FA8246606808B1012700E0002749
:104C5000B9F1000F03D0B9F1010F3CD119E08FB9C0
:104C6000B8A0E06000202070B548006860600020B7
:104C70002081B3480460504601F0A0FA002028705B
:104C8000002605E0504601F099FA49202870264692
:104C900028E0D4F8048005E000214046FFF791FFAA
:104CA000D8F80080B8F1000FF6D1A6A0E06000208F
:104CB0002070A3480068606000202081A048046044
:104CC000504601F07BFA012F01D1FFF722FC0020B2
:104CD0002870002606E0504601F070FA0720287080
:104CE000264600BF00BF3046A1E72DE9F04105464A
:104CF0000E46144600279148007820B111202070FC
:104D00000020BDE8F08101F055FA07462878052813
:104D100006D0384601F052FA012020700020F0E75A
:104D2000E86830603068FFF7D9FD8046384601F00A
:104D300045FA002020704046E3E72DE9F0410546A2
:104D40000E46144600277D48007818B112202070C6
:104D5000BDE8F08101F02EFA07462878052805D035
:104D6000384601F02BFA01202070F1E7EE6038465A
:104D700001F024FA0020207000BFE9E7F0B51446E6
:104D8000059E734F3F6897F8307047F02007DFF8B3
:104D9000C0C1DCF800C08CF830700027DFF8B0C16B
:104DA000DCF800C08CF83170694F3F68FE62684FD4
:104DB0003F6879620C828B74654F3F688F604768EB
:104DC0000F6000274F60C860456805B169604160A9
:104DD0005F4F3F6897F834205C4FBF5CDFF870C1CD
:104DE000DCF800C09CF835C027EA0C07DFF85CC18E
:104DF0000CF802706746BF5C5FB9554F3F6897F883
:104E000036C0514F3F7827EA0C07DFF83CC18CF8D9
:104E10000070F0BD2DE9F04F89B005460F46914670
:104E20009A46129E002002904448007828B1022041
:104E30003070002009B0BDE8F08F4648007818B106
:104E40000D2030700020F5E72878052803D00120D8
:104E500030700020EEE709F0800BBBF1000F04D0AA
:104E600009F07F094FF0010801E04FF0000801F060
:104E7000A1F90290B9F1000F4AD0B9F1010F78D031
:104E8000B9F1020F03D0B9F1030F71D120E02889E5
:104E900000EA0704BC420FD1B8F1010F02D1288902
:104EA000A04328812A4800680485029801F086F909
:104EB000002030702046BDE74B463A4604A92846FC
:104EC000CDF800A0FFF75AFF029801F077F978E0DB
:104ED000288900EA07047CB1B8F1010F02D12889C2
:104EE000A04328811A4800680485029801F066F9F9
:104EF0000020307020469DE74B463A4604A92846DC
:104F0000CDF800A0FFF73AFF029801F057F958E0FA
:104F1000288927EA0004BC421ED1B8F1010F02D152
:104F20002889204328810A4800680485029801F0F6
:104F300045F90020307020467CE71AE06900002027
:104F4000580000203F0000006D0000206E0000208F
:104F50007C0000206A0000204B463A4604A92846FF
:104F6000CDF800A0FFF70AFF029801F027F928E02A
:104F70001FE0288927EA00047CB1B8F1010F02D1B3
:104F8000288920432881B14800680485029801F0EF
:104F900015F90020307020464CE74B463A4604A9EC
:104FA0002846CDF800A0FFF7E9FE029801F006F9C7
:104FB00007E0029801F002F900246F2030702046CB
:104FC00038E700BFFFF7A5FA01F0F4F802909F4818
:104FD000006890F8310020B39C48006890F83100D8
:104FE000039000209949096881F8310004A8FFF76F
:104FF000D6FD00209549096881F83000029801F03B
:10500000DDF800240398012805D0022802D10E20E3
:10501000307003E000BF0A20307000BF00BF2046A0
:1050200008E78A480068048DB8F1010F1ED1B9F174
:10503000000F0ED0B9F1010F0CD0B9F1020F03D05F
:10504000B9F1030F0AD100E000BF2889A0432881ED
:105050000BE000BF28892043288106E0029801F078
:10506000ADF86F2030700020E4E600BF029801F038
:10507000A5F8002030702046DCE670B5002501F070
:1050800099F8054671480068048D284601F096F8A5
:10509000204670BD2DE9FC5F0446894692461E46B7
:1050A000002000902078052804D0012030700020D6
:1050B000BDE8FC9F01F07EF80090BAF1000F03D02C
:1050C000BAF1010F0AD104E0208920EA0900208109
:1050D0000BE0208940EA0900208106E0009801F0F9
:1050E0006DF8712030700020E2E700BF4FF0000B38
:1050F000656855E0A87C40B3012838D0022802D06A
:10510000032844D111E02089298A00EA0107288A6E
:10511000B84209D139462846FFF753FD8046B8F119
:10512000010F01D14FF0010B38E02089298A00EAF4
:1051300001074FB139462846FFF743FD8046B8F1D5
:10514000010F01D14FF0010B28E0288A218920EAC4
:105150000107288AB84209D139462846FFF731FDB0
:105160008046B8F1010F01D14FF0010B16E0288AFB
:10517000218920EA01074FB139462846FFF721FD72
:105180008046B8F1010F01D14FF0010B06E0009805
:1051900001F014F86F203070002089E700BF2D68FF
:1051A000002DA7D1009801F009F8BBF1010F01D142
:1051B000FFF7AFF900F0FEFF009020890190009802
:1051C00000F0FCFF00203070019871E72DE9F041FC
:1051D00004460D4600272078052804D001202870B9
:1051E0000020BDE8F08100F0E5FF0746268938463B
:1051F00000F0E4FF002028703046F2E72DE9F0418E
:1052000050211348FFF774F800250EE0681C86B2A1
:105210000F4800EB051400EB0617002020706760B4
:10522000AFF2E020E060681C85B2042DEED30848A0
:1052300000EB0514002020706060AFF2F820E06001
:10524000034804490860BDE8F08100007C000020AC
:10525000F0140020580000202DE9F04106460D46CC
:105260004FF000083078022804D001202870002078
:10527000BDE8F08100F09EFF80467468E08A78B156
:105280002169081D20610F68E08A401EE082A16844
:105290002069884201D1606820610020287002E006
:1052A0001F2028700027404600F088FF3846DFE7BF
:1052B0002DE9F04106460F464FF00008F748007808
:1052C00010B10020BDE8F08100F074FF8046F44882
:1052D0000568006820B1F24800684068F04908603D
:1052E000404600F06BFF3DB300F064FF8046ED48A0
:1052F0000468C4B100680068EA490860404600F0EC
:105300005DFF666006EB8700A060E6602661A7820D
:105310000020E08202202870002028816C6028464E
:10532000FFF7C4FA08E0DE4800686860DC48056002
:10533000404600F043FF00252846C3E72DE9F0472B
:105340000446894615464FF0000A2078022804D00A
:10535000012028702046BDE8F087D048007818B1B9
:105360000F2028702046F6E700F024FF8246A07A3E
:1053700010B14FF0010801E04FF00008B9F1000F43
:1053800003D0B9F1010F45D11FE0B8F1000F15D1DD
:105390006668C44800683060C2480660002020701B
:1053A000BF480068606000202081BD48046050460E
:1053B00000F004FF00202870002705E0504600F0B0
:1053C000FDFE4920287027462BE005E0002304223B
:1053D00019462046FFF7F9F9A07A0028F6D1666849
:1053E000B04800683060AF48066000202070AC48CC
:1053F0000068606000202081A9480460504600F0E9
:10540000DDFEB8F1010F01D1FFF783F8002028700D
:10541000002706E0504600F0D1FE072028702746FE
:1054200000BF00BF384696E770B50546002600F07D
:10543000C1FE06466C686068E0606068206100201C
:10544000E082304600F0BAFE002070BD2DE9F04742
:105450000746884615464FF000093878022804D0E0
:10546000012028700020BDE8F0878C48007818B132
:10547000022028700020F6E78B48007818B10D2034
:1054800028700020EFE700F095FE81467C68E08AF6
:1054900098B12169081D20610E68E08A401EE082F3
:1054A000A1682069884201D160682061484600F007
:1054B00085FE002028703046D5E77C48006890F8CB
:1054C000300040F004007949096881F8300000207C
:1054D0007649096881F8310074480068C0F82C806A
:1054E0003846FFF7ABF9484600F068FEFFF711F8C1
:1054F00000F060FE81466D48006890F8310020B1F0
:1055000001280DD002280AD105E068480068066A23
:10551000002028700DE000260E20287009E000BF52
:10552000394662480068FFF73BF900260A202870D8
:1055300000BF00BF00205D49096881F830005B4969
:10554000096881F8310059490968C86157490968F3
:105550000862484600F032FE304684E72DE9F0410B
:1055600004460F4615464FF000082078022804D064
:10557000012028700020BDE8F08100F01BFE80466D
:10558000A07A20B300267FB1012F0CD107E00223BF
:10559000042200212046FFF718F9701CC6B2A07A39
:1055A0000028F4D109E000BF022304220021204694
:1055B000FFF70BF9701CC6B200BF00BF404600F0F9
:1055C000FDFDFEF7A6FF0E2028703046D3E74046CB
:1055D00000F0F4FD0020287000BFCCE72DE9F04179
:1055E00005460E4600272878022802D00120BDE893
:1055F000F08100F0DFFD0746A87A60B100230422A5
:1056000031462846FFF7E1F8384600F0D7FDFEF7AF
:1056100080FF0020EBE76C68E08AA18A884204DB07
:10562000384600F0CBFD1E20E1E7E168081DE06090
:105630000E60E08A401CE082D4E90210884201D169
:105640006068E060384600F0B9FD0020CFE72DE942
:10565000F04105460E4600272878022802D0012096
:10566000BDE8F08100F0A6FD0746A87A60B10023EE
:10567000042231462846FFF7A8F8384600F09EFD80
:10568000FEF747FF0020EBE76C68E08AA18A8842BA
:105690000EDB384600F092FD1E20E1E76900002095
:1056A00054000020900000206A0000207C000020B0
:1056B00061682069884201D1A06820612069001FCB
:1056C000206120690660E08A401CE082384600F0D4
:1056D00075FD0020C4E72DE9F04105460F4616464A
:1056E0004FF000082878022802D00120BDE8F081A0
:1056F00000F060FD8046A87AE8B106F0010050B1E4
:1057000005E00023042239462846FFF75EF8A87A10
:105710000028F6D105E00023042239462846FFF789
:1057200054F8404600F04AFD06F0040008B9FEF7C0
:10573000F0FE0020DAE76C68E08AA18A884204DB88
:10574000404600F03BFD1E20D0E706F0020058B1B5
:1057500061682069884201D1A06820612069001F2A
:1057600020612069076009E0E168081DE0600F60C2
:10577000D4E90210884201D16068E060E08A401CF0
:10578000E082404600F01AFD0020AFE72DE9F04727
:1057900005460C464FF0000A2878022802D0012066
:1057A000BDE8F08700F006FD8246A87A207405F176
:1057B0000B0804F10809002705E018F8010B09F8A7
:1057C000010B781CC7B2082FF7D36E68F08A18B1A6
:1057D00030690068206001E000202060F08AA0802D
:1057E000B08AE080504600F0E9FC0020D8E72DE9BF
:1057F000F04178211048FEF77BFD00240DE0601C8D
:1058000086B204EB44000C4901EBC00506EB4600F0
:1058100001EBC0072F60601C84B2042CEFD304EBB3
:105820004400054901EBC0050020286008460349F3
:105830000860BDE8F0810000301E002090000020CC
:105840002DE9FF5F814688460020009000F0B2FC01
:105850000090F94850F8280030B1009800F0AEFCF4
:10586000282004B0BDE8F09FB9F1FF0F03D1F34841
:10587000006890F83290F04850F8294024B9009818
:1058800000F09CFC2920ECE7012C04D1009800F0EA
:1058900095FC4320E5E74FEAE80708F0070003908E
:1058A0000120B84000F0FF0A01210398814001F077
:1058B000FF0B0020E04941F82900084640F8284045
:1058C00014F8346FA07802906078343C0190DC4882
:1058D000815D01980140D1B1D948805D019988432B
:1058E000D74988550846805D28B9D648007802997E
:1058F0008843D4490870D348007840EA0A00D14967
:105900000870CF48C05D40EA0B00CD49C855E56935
:10591000D5B105F10B00805D0199884305F10B01BC
:1059200088550846805D18B9A87A02998843A872FC
:10593000A87A40EA0A00A87205F10B00C05D40EAAF
:105940000B0005F10B01C85584F8328084F83470DF
:10595000039884F8330084F836A084F835B00098B2
:1059600000F02CFCB8480078012801D1FEF7D1FDE9
:10597000002076E72DE9FE4F06460F4690461C466E
:105980004FF0000900F016FC8146B048007828B1BD
:10599000484600F013FC3C20BDE8FE8FA64850F8B6
:1059A000240060BB0120A44941F82400484600F0CF
:1059B00005FC002342463946304600F065FC82462D
:1059C0000020009001900346024651460290204676
:1059D000FEF78EFF054635B99B48007801280CD1AB
:1059E000FEF797FD09E000F0E5FB814600209249B3
:1059F00041F82400484600F0E1FB2846CCE7484641
:105A000000F0DCFB2820C7E702F0010343B102F0FD
:105A100002032BB102E0491E002308C00029FAD17D
:105A200070472DE9F04F85B081468A4693461C4663
:105A3000DDE90F78129D0020039000F0BBFB03907E
:105A40008248007830B1039800F0B8FB3C2005B0E4
:105A5000BDE8F08F784850F8240088BB01207649D3
:105A600041F82400039800F0A9FB2A464146384635
:105A7000FFF7CAFF2B465A465146484600F004FC41
:105A800004901198CDE9008002953A4620460E9B7D
:105A90000499FEF72DFF064636B96B4800780128B9
:105AA0000CD1FEF736FD09E000F084FB03900020E6
:105AB000614941F82400039800F080FB3046C6E7B6
:105AC000FFE7039800F07AFB2820C0E72DE9F041BA
:105AD000054600275D48007810B14020BDE8F08100
